:03000000020424D3
:0C042400787FE4F6D8FD75813C02046B83
:1005E100021D001A0219001C021B0001021700055E
:1005F10002150000C103C101C100C10201130001C4
:0F06010014000B08FC60DAF266B6BEE0FEF600ED
:10011B00E4F521F522F523F5241202BD1200161287
:10012B00061112062CAE1BAF1C7C047DB01203878C
:10013B00AA06AB07AE17AF187C007D14120387EF2E
:10014B002BF516EE3AF515E5242401FFE43523FED5
:10015B007C0B7DB81203EE8C238D24AE23AF247C55
:10016B000B7DB81203EEED4C70031202BD3002048E
:0D017B00D28CC202E5146401706120B7420D
:100188007525037526E8E5261526AE257002152582
:100198004E70F320B72CAE1BAF1C7C047DB012034D
:1001A80087AA06AB07AE17AF187C007D1412038729
:1001B800EF2BF516EE3AF515D2027599373099FD01
:0201C800C299DA
:1001CA00E5224521700E12063F0522E5227002053E
:1001DA0021020152AF1312059D020152E4F521F5E5
:0801EA0022C2A0C2A1020152D1
:030003000204B044
:1004B000C0E0C0F0C083C082C0D075D000C000C012
:0D04C00001C002C003C004C005C006C00793
:1004CD007FE87E03EF1FAC0670011E4C70F620B264
:1004DD003BE51464017035E5132401FFE433FE7C24
:1004ED00007D031203998D131202BDE51314600CE8
:1004FD0014600E2402700D752B328008752B33801D
:0C050D0003752B34852B993099FDC299A1
:10051900D007D006D005D004D003D002D001D00036
:0B052900D0D0D082D083D0F0D0E032E0
:03001300020534AF
:10053400C0E0C0F0C083C082C0D075D000C000C08D
:0D05440001C002C003C004C005C006C0070E
:100551007FE87E03EF1FAC0670011E4C70F620B3DE
:1005610020C3049514F5141202BDE514600814703B
:100571000875303180037530308530993099FDC26E
:0105810099E0
:10058200D007D006D005D004D003D002D001D000CD
:0B059200D0D0D082D083D0F0D0E03277
:03000B000201F2FD
:1001F200C0E0C0F0C083C082C0D075D000C000C0D3
:1002020001C002C003C004C005C006C007E5161540
:100212001670021515AE15AF167C007D141203EE92
:10022200ED4C705BAE15AF167C047DB01203EE8E02
:100232001B8F1C7C047DB0120387C3E5169FFFE56C
:10024200159EFE7C007D141203EE8E178F18C3E5F7
:100252001A951EFFE519951DFED3EF9402EE6480F8
:10026200948040057513028013D3EF9401EE6480ED
:100272009480400575130180037513001202BDE5D9
:100282001645157013F5141202BDC202C28C75997F
:10029200303099FDC2998008758C4B758A28D28CB2
:1002A200D007D006D005D004D003D002D001D000B0
:0B02B200D0D0D082D083D0F0D0E0325A
:0B001600D288D28AD2A8D2AAD2AF2290
:10062C00E58954F04401F589758C4B758A28D2A95B
:03063C00C28C224B
:10059D00E4FDFCEF14600D146010240270107C015A
:1005AD007D2C800A7C027D5880047C037D84C3747D
:1005BD00E89DFB74039CFAC2A0D2A1ED1DAE0470A0
:1005CD00011C4E70F6C2A0C2A1EB1BAE0270011A47
:0305DD004E70F667
:0105E00022F8
:10063F007FE87E03C2A0D2A1EF1FAC0670011E4C53
:02064F0070F643
:010651002286
:10061100759850E589540F4420F589758780758D4B
:0B062100FA758BFAD2ACD2AFD28E2259
:03002300020026B2
:10002600C0E0C0F0C083C082C0D075D000C000C0A0
:0D00360001C002C003C004C005C006C00721
:10004300A999C29830010FE924D0F51CE434FFF5D7
:100053001BC2010200F630030FE924D0F518E43483
:10006300FFF517C2030200F630000EE924D0F51E97
:10007300E434FFF51DC200807AE924D0B4090050AE
:100083007290009275F003A4C58325F0C5837302B3
:1000930000AD0200B20200B70200BC0200C10200C0
:1000A300C60200CA0200CE0200F475140080447533
:1000B3001401803F751300803A7513018035751361
:1000C300028030D201802CD2038028AE1BAF1C7C6F
:1000D300047DB0120387AA06AB07AE17AF187C00E6
:1000E3007D14120387EF2BF516EE3AF515D2028035
:0D00F30002D20089993099FDC2991202BD18
:10010000D007D006D005D004D003D002D001D00053
:0B011000D0D0D082D083D0F0D0E032FD
:1002BD00E4F53B753C0AC2A3C2A2F539F53AE5391E
:1002CD007064E53A146016146019146026146033D6
:1002DD001460402405704F7408251480447408255B
:1002ED0013803EAE17AF187C007D0A1203EE740822
:1002FD002D802EAE17AF187C007D0A1203EE740808
:10030D002F801EAE1BAF1C7C007D0A1203EE7408FD
:10031D002D800EAE1BAF1C7C007D0A1203EE7408FF
:10032D002FF8E6F98002A912E4FAFBC2A3AF037419
:10033D00017E00A807088005C333CE33CED8F9FF60
:10034D00E9FDEF5D24FF92A2753B00753C0AE53C8B
:10035D00153CAE3B7002153B4E70F3D2A30BBB00A8
:10036D00010AEB64084A70C3053AE53A7002053993
:09037D006406453960030202CB5D
:010386002254
:1004300002011BE493A3F8E493A34003F68001F2C6
:1004400008DFF48029E493A3F85407240CC8C333CD
:10045000C4540F4420C8834004F456800146F6DF9C
:10046000E4800B01020408102040809005E1E47E46
:10047000019360BCA3FF543F30E509541FFEE49391
:10048000A360010ECF54C025E060A840B8E493A358
:10049000FAE493A3F8E493A3C8C582C8CAC583CA83
:1004A000F0A3C8C582C8CAC583CADFE9DEE780BE3B
:0106100000E9
:10038700EF8DF0A4A8F0CF8CF0A428CE8DF0A42E8A
:02039700FE2244
:10039900BC000BBE0029EF8DF084FFADF022E4CC48
:1003A900F875F008EF2FFFEE33FEEC33FCEE9DEC11
:1003B900984005FCEE9DFE0FD5F0E9E4CEFD22ED57
:1003C900F8F5F0EE8420D21CFEADF075F008EF2FA1
:1003D900FFED33FD4007985006D5F0F222C398FD92
:0503E9000FD5F0EA222F
:1003EE00C2D5EC30E709B2D5E4C39DFDE49CFCEE2A
:1003FE0030E715B2D5E4C39FFFE49EFE120399C306
:10040E00E49DFDE49CFC800312039930D507C3E400
:06041E009FFFE49EFE2298
:00000001FF
