:0300000002039563
:0C039500787FE4F6D8FD75813D0203DCA2
:10055500021900010217000502150000C102C100C1
:10056500C1010113000114000B08FC60DAF266B644
:05057500BEE0FEF600EF
:10002600E4F521F522F523F5241200F51200161247
:10003600057B120596AE19AF1A7C047DB0120263D9
:10004600AA06AB07AE17AF187C007D14120263EF49
:100056002BF516EE3AF515E5242401FFE43523FECB
:100066007C0B7DB81202CA8C238D24AE23AF247C70
:100076000B7DB81202CAED4C70031200F530010474
:0D008600D28CC201E5146401705920B73A14
:100093007525037526E8E5261526AE257002152578
:1000A3004E70F320B724AE19AF1A7C047DB0120250
:1000B30063AA06AB07AE17AF187C007D1412026368
:0A00C300EF2BF516EE3AF515D20109
:1000CD00E5224521700E1205A90522E52270810554
:1000DD002102005DAF1312051102005DE4F521F55B
:0800ED0022C2A0C2A102005DC5
:03000300020421D3
:10042100C0E0C0F0C083C082C0D075D000C000C0A1
:0D04310001C002C003C004C005C006C00722
:10043E007FE87E03EF1FAC0670011E4C70F620B2F3
:10044E003E1200F5E51464017035E5132401FFE456
:10045E0033FE7C007D031202758D131200F5E51339
:10046E0014600C14600E2402700D752B028008753A
:0F047E002B038003752B04852B993099FDC299B0
:10048D00D007D006D005D004D003D002D001D000C3
:0B049D00D0D0D082D083D0F0D0E0326D
:030013000204A83C
:1004A800C0E0C0F0C083C082C0D075D000C000C01A
:0D04B80001C002C003C004C005C006C0079B
:1004C5007FE87E03EF1FAC0670011E4C70F620B36B
:1004D50020C3049514F5141200F5E5146008147092
:1004E5000875300180037530008530993099FDC25B
:0104F500996D
:1004F600D007D006D005D004D003D002D001D0005A
:0B050600D0D0D082D083D0F0D0E03203
:03000B00020300ED
:10030000C0E0C0F0C083C082C0D075D000C000C0C3
:1003100001C002C003C004C005C006C007E5161531
:100320001670021515AE15AF167C007D141202CAA8
:10033000ED4C702DAE15AF167C047DB01202CA8E46
:10034000198F1A7C047DB0120263C3E5169FFFE586
:10035000159EFE7C007D141202CA8E178F181200A3
:10036000F5E5164515700BF5141200F5C201C28CA7
:100370008008758C4B758A28D28CD007D006D005A2
:10038000D004D003D002D001D000D0D0D082D0830E
:05039000D0F0D0E032C6
:0B001600D288D28AD2A8D2AAD2AF2290
:10059600E58954F04401F589758C4B758A28D2A9F2
:0305A600C28C22E2
:10051100E4FDFCEF14600D146010240270107C01E6
:100521007D2C800A7C027D5880047C037D84C37409
:10053100E89DFB74039CFAC2A0D2A1ED1DAE04702C
:10054100011C4E70F6C2A0C2A1EB1BAE0270011AD3
:030551004E70F6F3
:010554002284
:1005A9007FE87E03C2A0D2A1EF1FAC0670011E4CEA
:0205B90070F6DA
:0105BB00221D
:10057B00759850E589540F4420F589758780758DE2
:0B058B00FA758BFAD2ACD2AFD28E22F0
:030023000201BF18
:1001BF00C0E0C0F0C083C082C0D075D000C000C006
:0D01CF0001C002C003C004C005C006C00787
:1001DC00859939C29830000A75190085391AC20000
:1001EC00804F30020A751700853918C2028042E52B
:1001FC0039B40700503B900209F828287302021EFC
:10020C0002022302022802022D02023202023702EB
:10021C00023B751400801A7514018015751300804B
:10022C0010751301800B7513028006D2008002D268
:0C023C00021200F58539993099FDC29935
:10024800D007D006D005D004D003D002D001D0000A
:0B025800D0D0D082D083D0F0D0E032B4
:1000F500E4F53C753D0AC2A3C2A2F53AF53BE53AE3
:100105007064E53B1460161460191460261460339E
:100115001460402405704F74082514804474082524
:1001250013803EAE17AF187C007D0A1202CA740810
:100135002D802EAE17AF187C007D0A1202CA7408F6
:100145002F801EAE19AF1A7C007D0A1202CA7408F0
:100155002D800EAE19AF1A7C007D0A1202CA7408F2
:100165002FF8E6F98002A912E4FAFBC2A3AF0374E3
:10017500017E00A807088005C333CE33CED8F9FF2A
:10018500E9FDEF5D24FF92A2753C00753D0AE53D52
:10019500153DAE3C7002153C4E70F3D2A30BBB006F
:1001A500010AEB64084A70C3053BE53B7002053A5A
:0901B5006406453A6003020103EF
:0101BE00221E
:1003A100020026E493A3F8E493A34003F68001F24C
:1003B10008DFF48029E493A3F85407240CC8C3335D
:1003C100C4540F4420C8834004F456800146F6DF2C
:1003D100E4800B0102040810204080900555E47E62
:1003E100019360BCA3FF543F30E509541FFEE49321
:1003F100A360010ECF54C025E060A840B8E493A3E8
:10040100FAE493A3F8E493A3C8C582C8CAC583CA12
:10041100F0A3C8C582C8CAC583CADFE9DEE780BECA
:01057A000080
:10026300EF8DF0A4A8F0CF8CF0A428CE8DF0A42EAF
:02027300FE2269
:10027500BC000BBE0029EF8DF084FFADF022E4CC6D
:10028500F875F008EF2FFFEE33FEEC33FCEE9DEC36
:10029500984005FCEE9DFE0FD5F0E9E4CEFD22ED7C
:1002A500F8F5F0EE8420D21CFEADF075F008EF2FC6
:1002B500FFED33FD4007985006D5F0F222C398FDB7
:0502C5000FD5F0EA2254
:1002CA00C2D5EC30E709B2D5E4C39DFDE49CFCEE4F
:1002DA0030E715B2D5E4C39FFFE49EFE120275C350
:1002EA00E49DFDE49CFC800312027530D507C3E44B
:0602FA009FFFE49EFE22BE
:00000001FF
