:03000000020026D5
:0C002600787FE4F6D8FD75810E02006DB5
:0902E300010D00010E00010CFCEC
:10024B00E4F508F5091200161202AC1200B2E50E25
:10025B00B4011AE5094508700D1202C20509E5093A
:10026B0070EC050880E8AF0D1201C480E1E4F508DD
:08027B00F509C2A0C2A180D662
:03000300020113E4
:10011300C0E0C0F0C0D075D000C000C003C004C0B0
:0501230005C006C00745
:10012800E50E6401702EE50D2401FFE433FE7C002A
:100138007D0312016F8D0DE50D14600B14600C2406
:1001480002700A7B0280067B0380027B048B993055
:0401580099FDC299B2
:10015C00D007D006D005D004D003D000D0D0D0F03A
:03016C00D0E032AE
:0300130002028363
:09028300C0E0C0D075D000C00736
:10028C00C37401950EF50E60071470067F01800291
:09029C007F008F993099FDC29991
:0702A500D007D0D0D0E032F9
:03000B00020006EA
:0100060032C7
:0B001600D288D28AD2A8D2AAD2AF2290
:0E02D500758901758C9C758A9CD2A9D28C22E9
:1001C400E4FDFCEF14600D146010240270107C0B2D
:1001D4007DB8800A7C177D7080047C237D28C374DD
:1001E400109DFB74279CFAC2A0D2A1ED1DAE047031
:1001F400011C4E70F6C2A0C2A1EB1BAE0270011A24
:030204004E70F643
:0102070022D4
:1002C2007F107E27C2A0D2A1EF1FAC0670011E4C88
:0202D20070F6C4
:0102D4002207
:1002AC00759850758920758780758DFA758BFAD283
:0602BC00ACD2AFD28E228D
:03002300020208CE
:09020800C0E0C0D075D000C007B1
:10021100AF99C298EF146012146014146016146040
:100221001824047017750E008012750E01800D756B
:100231000D008008750D018003750D028F993099AD
:03024100FDC29962
:07024400D007D0D0D0E0325A
:1000B200E4C2A3C2A2F50AF50BE50A7017E50B1418
:1000C200600904700F740C250E8004740C250DF861
:1000D200E6F98002A90CE4FAFBC2A3AF0374017E25
:1000E20000A807088005C333CE33CED8F9FFEF55F9
:1000F2000C24FF92A2D2A30BBB00010AEB64084AB4
:1001020070D7050BE50B7002050A6406450A70A953
:0101120022CA
:1000320002024BE493A3F8E493A34003F68001F297
:1000420008DFF48029E493A3F85407240CC8C333CF
:10005200C4540F4420C8834004F456800146F6DF9E
:10006200E4800B01020408102040809002E3E47E49
:10007200019360BCA3FF543F30E509541FFEE49393
:10008200A360010ECF54C025E060A840B8E493A35A
:10009200FAE493A3F8E493A3C8C582C8CAC583CA85
:1000A200F0A3C8C582C8CAC583CADFE9DEE780BE3D
:0102EC000011
:10016F00BC000BBE0029EF8DF084FFADF022E4CC74
:10017F00F875F008EF2FFFEE33FEEC33FCEE9DEC3D
:10018F00984005FCEE9DFE0FD5F0E9E4CEFD22ED83
:10019F00F8F5F0EE8420D21CFEADF075F008EF2FCD
:1001AF00FFED33FD4007985006D5F0F222C398FDBE
:0501BF000FD5F0EA225B
:00000001FF
