:0300000002036A8E
:0C036A00787FE4F6D8FD75813D0203B1F8
:10052A00021900000217000502150000C102C100ED
:10053A00C1010113000114000B08FC60DAF266B66F
:05054A00BEE0FEF6001A
:1000F000E4F521F522F523F524120026120016124C
:10010000055012056BAE19AF1A7C047DB01202388F
:10011000AA06AB07AE17AF187C007D14120238EFA9
:100120002BF516EE3AF515E5242401FFE43523FE00
:100130007C277D1012029F8C238D24AE23AF247C5C
:10014000277D1012029FED4C70031200263001042F
:0D015000D28CC201E5146401703520B7188F
:10015D007525037526E8E5261526AE2570021525AD
:08016D004E70F320B702D2012D
:10017500E5224521700D12057E0522E52270A305B5
:1001850021809FAF131204E68098E4F521F522C281
:05019500A0C2A1808D55
:030003000203F6FF
:1003F600C0E0C0F0C083C082C0D075D000C000C0CD
:0D04060001C002C003C004C005C006C0074D
:100413007FE87E03EF1FAC0670011E4C70F620B21E
:100423003E120026E51464017035E5132401FFE450
:1004330033FE7C007D0312024A8D13120026E5135E
:1004430014600C14600E2402700D752B0280087565
:0F0453002B038003752B04852B993099FDC299DB
:10046200D007D006D005D004D003D002D001D000EE
:0B047200D0D0D082D083D0F0D0E03298
:0300130002047D67
:10047D00C0E0C0F0C083C082C0D075D000C000C045
:0D048D0001C002C003C004C005C006C007C6
:10049A007FE87E03EF1FAC0670011E4C70F620B396
:1004AA0020C3049514F514120026E514600814708C
:1004BA000875300180037530008530993099FDC286
:0104CA009998
:1004CB00D007D006D005D004D003D002D001D00085
:0B04DB00D0D0D082D083D0F0D0E0322F
:03000B000202D519
:1002D500C0E0C0F0C083C082C0D075D000C000C0EF
:1002E50001C002C003C004C005C006C007E516155D
:1002F5001670021515AE15AF167C007D1412029FFF
:10030500ED4C702DAE15AF167C047DB012029F8E9C
:10031500198F1A7C047DB0120238C3E5169FFFE5DC
:10032500159EFE7C007D1412029F8E178F181200F9
:1003350026E5164515700BF514120026C201C28C70
:100345008008758C4B758A28D28CD007D006D005CD
:10035500D004D003D002D001D000D0D0D082D08339
:05036500D0F0D0E032F1
:0B001600D288D28AD2A8D2AAD2AF2290
:10056B00E58954F04401F589758C4B758A28D2A91D
:03057B00C28C220D
:1004E600E4FDFCEF14600D146010240270107C0112
:1004F6007D2C800A7C027D5880047C037D84C37435
:10050600E89DFB74039CFAC2A0D2A1ED1DAE047057
:10051600011C4E70F6C2A0C2A1EB1BAE0270011AFE
:030526004E70F61E
:0105290022AF
:10057E007FE87E03C2A0D2A1EF1FAC0670011E4C15
:02058E0070F605
:010590002248
:10055000759850E589540F4420F589758780758D0D
:0B056000FA758BFAD2ACD2AFD28E221B
:0300230002019A3D
:10019A00C0E0C0F0C083C082C0D075D000C000C02B
:0D01AA0001C002C003C004C005C006C007AC
:1001B700859939C29830000875190085391A804B1E
:1001C7003002087517008539188040E539B40700F3
:1001D70050399001E0F82828730201F50201FA026C
:1001E70001FF02020402020902020E020210751444
:1001F7000080187514018013751300800E751301A4
:1002070080097513028004D200D2021200268539B4
:06021700993099FDC29927
:10021D00D007D006D005D004D003D002D001D00035
:0B022D00D0D0D082D083D0F0D0E032DF
:10002600E4F53C753D0AC2A3C2A2F53AF53BE53AB2
:100036007064E53B1460161460191460261460336E
:100046001460402405704F740825148044740825F4
:1000560013803EAE17AF187C007D0A12029F74080B
:100066002D802EAE17AF187C007D0A12029F7408F1
:100076002F801EAE19AF1A7C007D0A12029F7408EB
:100086002D800EAE19AF1A7C007D0A12029F7408ED
:100096002FF8E6F98002A912E4FAFBC2A3AF0374B3
:1000A600017E00A807088005C333CE33CED8F9FFFA
:1000B600E9FDEF5D24FF92A2753C00753D0AE53D22
:1000C600153DAE3C7002153C4E70F3D2A30BBB003F
:1000D600010AEB64084A70C3053BE53B7002053A2A
:0900E6006406453A60030200348F
:0100EF0022EE
:100376000200F0E493A3F8E493A34003F68001F2AD
:1003860008DFF48029E493A3F85407240CC8C33388
:10039600C4540F4420C8834004F456800146F6DF57
:1003A600E4800B010204081020408090052AE47EB8
:1003B600019360BCA3FF543F30E509541FFEE4934C
:1003C600A360010ECF54C025E060A840B8E493A313
:1003D600FAE493A3F8E493A3C8C582C8CAC583CA3E
:1003E600F0A3C8C582C8CAC583CADFE9DEE780BEF6
:01054F0000AB
:10023800EF8DF0A4A8F0CF8CF0A428CE8DF0A42EDA
:02024800FE2294
:10024A00BC000BBE0029EF8DF084FFADF022E4CC98
:10025A00F875F008EF2FFFEE33FEEC33FCEE9DEC61
:10026A00984005FCEE9DFE0FD5F0E9E4CEFD22EDA7
:10027A00F8F5F0EE8420D21CFEADF075F008EF2FF1
:10028A00FFED33FD4007985006D5F0F222C398FDE2
:05029A000FD5F0EA227F
:10029F00C2D5EC30E709B2D5E4C39DFDE49CFCEE7A
:1002AF0030E715B2D5E4C39FFFE49EFE12024AC3A6
:1002BF00E49DFDE49CFC800312024A30D507C3E4A1
:0602CF009FFFE49EFE22E9
:00000001FF
