:030000000203EF09
:0C03EF00787FE4F6D8FD75813C020436EE
:1005AC00021B00010219000502170000021D0000C9
:1005BC0002080000C1000115000116000B0AFC60C6
:0905CC00DAF266B6BEE0FEF600AC
:10011C00E4F521F522F523F5241201F31200161251
:10012C0005D61205F1AE1BAF1C7C047DB01202BDCE
:10013C00AA06AB07AE19AF1A7C007D141202BDEFF4
:10014C002BF518EE3AF517E5242401FFE43523FED0
:10015C007C0B7DB81203248C238D24AE23AF247C1E
:10016C000B7DB8120324ED4C70031201F330000424
:0D017C00D28CC200E5166401706120B7420C
:100189007525037526E8E5261526AE257002152581
:100199004E70F320B72CAE1BAF1C7C047DB012024D
:1001A900BDAA06AB07AE19AF1A7C007D141202BDB9
:1001B900EF2BF518EE3AF517D2007599373099FDFE
:0201C900C299D9
:1001CB00E5224521700E1206040522E52270020578
:1001DB0021020153AF15120568020153E4F521F515
:0801EB0022C2A0C2A1020153CF
:0300030002047B79
:10047B00C0E0C0F0C083C082C0D075D000C000C047
:0D048B0001C002C003C004C005C006C007C8
:100498007FE87E03EF1FAC0670011E4C70F620B299
:1004A8003BE51664017035E5152401FFE433FE7C55
:1004B800007D031202CF8D151201F3E51514600CAF
:1004C80014600E2402700D752B028008752B0380B2
:0C04D80003752B04852B993099FDC29907
:1004E400D007D006D005D004D003D002D001D0006C
:0B04F400D0D0D082D083D0F0D0E03216
:030013000204FFE5
:1004FF00C0E0C0F0C083C082C0D075D000C000C0C3
:0D050F0001C002C003C004C005C006C00743
:10051C007FE87E03EF1FAC0670011E4C70F620B313
:10052C0020C3049516F5161201F3E5166008147035
:10053C000875300180037530008530993099FDC203
:01054C009915
:10054D00D007D006D005D004D003D002D001D00002
:0B055D00D0D0D082D083D0F0D0E032AC
:03000B0002035A93
:10035A00C0E0C0F0C083C082C0D075D000C000C069
:10036A0001C002C003C004C005C006C007E51815D5
:10037A001870021517AE17AF187C007D14120324EB
:10038A00ED4C702DAE17AF187C047DB01203248E8D
:10039A001B8F1C7C047DB01202BDC3E5189FFFE5CC
:1003AA00179EFE7C007D141203248E198F1A1201E7
:1003BA00F3E5184517700BF5161201F3C200C28C4B
:1003CA008008758C4B758A28D28CD007D006D00548
:1003DA00D004D003D002D001D000D0D0D082D083B4
:0503EA00D0F0D0E0326C
:0B001600D288D28AD2A8D2AAD2AF2290
:1005F100E58954F04401F589758C4B758A28D2A997
:03060100C28C2286
:10056800E4FDFCEF14600D146010240270107C018F
:100578007D2C800A7C027D5880047C037D84C374B2
:10058800E89DFB74039CFAC2A0D2A1ED1DAE0470D5
:10059800011C4E70F6C2A0C2A1EB1BAE0270011A7C
:0305A8004E70F69C
:0105AB00222D
:100604007FE87E03C2A0D2A1EF1FAC0670011E4C8E
:0206140070F67E
:0106160022C1
:1005D600759850E589540F4420F589758780758D87
:0B05E600FA758BFAD2ACD2AFD28E2295
:03002300020026B2
:10002600C0E0C0F0C083C082C0D075D000C000C0A0
:0D00360001C002C003C004C005C006C00721
:10004300A999C298E509640145087013E924D0F51C
:100053001CE434FFF51B7508007509000200F7E581
:100063001E6401451D7012E924D0F51AE434FFF52E
:1000730019751D00751E00807BE924D0B40800505B
:100083007390009275F003A4C58325F0C5837302B2
:1000930000AA0200AF0200B40200B90200BE0200CF
:1000A300C30200CB0200D375160080487516018089
:1000B30043751500803E751501803975150280342E
:1000C300750800750901802C751D00751E018024BB
:1000D300AE1BAF1C7C047DB01202BDAA06AB07AEFB
:1000E30019AF1A7C007D141202BDEF2BF518EE3AFE
:0E00F300F517D20089993099FDC2991201F3D8
:10010100D007D006D005D004D003D002D001D00052
:0B011100D0D0D082D083D0F0D0E032FC
:1001F300E4F53B753C0AC2A3C2A2F539F53AE539E9
:100203007064E53A146016146019146026146033A0
:100213001460402405704F740A25168044740A251F
:1002230015803EAE19AF1A7C007D0A120324740AAE
:100233002D802EAE19AF1A7C007D0A120324740A96
:100243002F801EAE1BAF1C7C007D0A120324740A90
:100253002D800EAE1BAF1C7C007D0A120324740A92
:100263002FF8E6F98002A914E4FAFBC2A3AF0374E2
:10027300017E00A807088005C333CE33CED8F9FF2B
:10028300E9FDEF5D24FF92A2753B00753C0AE53C56
:10029300153CAE3B7002153B4E70F3D2A30BBB0073
:1002A300010AEB64084A70C3053AE53A700205395E
:0902B300640645396003020201F2
:0102BC00221F
:1003FB0002011CE493A3F8E493A34003F68001F2FB
:10040B0008DFF48029E493A3F85407240CC8C33302
:10041B00C4540F4420C8834004F456800146F6DFD1
:10042B00E4800B01020408102040809005ACE47EB0
:10043B00019360BCA3FF543F30E509541FFEE493C6
:10044B00A360010ECF54C025E060A840B8E493A38D
:10045B00FAE493A3F8E493A3C8C582C8CAC583CAB8
:10046B00F0A3C8C582C8CAC583CADFE9DEE780BE70
:0105D5000025
:1002BD00EF8DF0A4A8F0CF8CF0A428CE8DF0A42E55
:0202CD00FE220F
:1002CF00BC000BBE0029EF8DF084FFADF022E4CC13
:1002DF00F875F008EF2FFFEE33FEEC33FCEE9DECDC
:1002EF00984005FCEE9DFE0FD5F0E9E4CEFD22ED22
:1002FF00F8F5F0EE8420D21CFEADF075F008EF2F6C
:10030F00FFED33FD4007985006D5F0F222C398FD5C
:05031F000FD5F0EA22F9
:10032400C2D5EC30E709B2D5E4C39DFDE49CFCEEF4
:1003340030E715B2D5E4C39FFFE49EFE1202CFC39B
:10034400E49DFDE49CFC80031202CF30D507C3E496
:060354009FFFE49EFE2263
:00000001FF
