:03000000020016E5
:0C001600787FE4F6D8FD75810902005DDA
:0601AC000108000109003A
:0F0184001201A1E509B401FBAF081200F780F4E6
:0300030002013ABD
:10013A00C0E0C0F0C0D075D000C000C004C005C087
:10014A0006C007E509B40111E5082401FFE433FEFE
:10015A007C007D031200A28D08D007D006D005D0FE
:0A016A0004D000D0D0D0F0D0E03275
:0300130002017473
:10017400C0E0C0D0C374019509F509D0D0D0E032F5
:03000B00020006EA
:0100060032C7
:0B01A100D288D28AD2A8D2AAD2AF2204
:0E019300758901758C9C758A9CD2A9D28C222C
:1000F700E4FDFCEF14600D146010240270107C0006
:100107007D0A800A7C007D3280047C007D5AC3749E
:10011700649DFBE49CFAD290C291ED1DAE04700180
:100127001C4E70F6C290C291EB1BAE0270011A4EC4
:0201370070F660
:0101390022A3
:10002200020184E493A3F8E493A34003F68001F26F
:1000320008DFF48029E493A3F85407240CC8C333DF
:10004200C4540F4420C8834004F456800146F6DFAE
:10005200E4800B01020408102040809001ACE47E91
:10006200019360BCA3FF543F30E509541FFEE493A3
:10007200A360010ECF54C025E060A840B8E493A36A
:10008200FAE493A3F8E493A3C8C582C8CAC583CA95
:10009200F0A3C8C582C8CAC583CADFE9DEE780BE4D
:0101B200004C
:1000A200BC000BBE0029EF8DF084FFADF022E4CC42
:1000B200F875F008EF2FFFEE33FEEC33FCEE9DEC0B
:1000C200984005FCEE9DFE0FD5F0E9E4CEFD22ED51
:1000D200F8F5F0EE8420D21CFEADF075F008EF2F9B
:1000E200FFED33FD4007985006D5F0F222C398FD8C
:0500F2000FD5F0EA2229
:00000001FF
