:03000000020026D5
:0C002600787FE4F6D8FD75810B02006DB8
:06024400010800010900A1
:1001C800E4F50AF50B1200161201FDE509B4011A4F
:1001D800E50B450A700D120213050BE50B70EC05D3
:1001E8000A80E8AF0812010780E1E4F50AF50BC2BE
:0501F800A0C2A180D6A9
:0300030002018E69
:10018E00C0E0C0F0C0D075D000C000C004C005C033
:10019E0006C007E509B40111E5082401FFE433FEAA
:1001AE007C007D031200B28D08D007D006D005D09A
:0A01BE0004D000D0D0D0F0D0E03221
:03001300020226C0
:10022600C0E0C0D0C374019509F509D0D0D0E03242
:03000B00020006EA
:0100060032C7
:0B001600D288D28AD2A8D2AAD2AF2290
:0E023600758901758C9C758A9CD2A9D28C2288
:10010700E4FDFCEF14600D146010240270107C0BEA
:100117007DB8800A7C177D7080047C237D28C3749A
:10012700109DFB74279CFAC2A0D2A1ED1DAE0470EE
:10013700011C4E70F6C2A0C2A1EB1BAE0270011AE1
:030147004E70F601
:01014A002292
:100213007F107E27C2A0D2A1EF1FAC0670011E4C37
:0202230070F673
:0102250022B6
:1001FD00759850758920758780758DFA758BFAD233
:06020D00ACD2AFD28E223C
:0300230002014B8C
:09014B00C0E0C0D075D000C0076F
:10015400AF99C298EF1460121460141460161460FE
:1001640018240470177509008012750901800D7533
:100174000800800875080180037508028F9930997A
:03018400FDC29920
:07018700D007D0D0D0E03218
:100032000201C8E493A3F8E493A34003F68001F21B
:1000420008DFF48029E493A3F85407240CC8C333CF
:10005200C4540F4420C8834004F456800146F6DF9E
:10006200E4800B0102040810204080900244E47EE8
:10007200019360BCA3FF543F30E509541FFEE49393
:10008200A360010ECF54C025E060A840B8E493A35A
:10009200FAE493A3F8E493A3C8C582C8CAC583CA85
:1000A200F0A3C8C582C8CAC583CADFE9DEE780BE3D
:01024A0000B3
:1000B200BC000BBE0029EF8DF084FFADF022E4CC32
:1000C200F875F008EF2FFFEE33FEEC33FCEE9DECFB
:1000D200984005FCEE9DFE0FD5F0E9E4CEFD22ED41
:1000E200F8F5F0EE8420D21CFEADF075F008EF2F8B
:1000F200FFED33FD4007985006D5F0F222C398FD7C
:050102000FD5F0EA2218
:00000001FF
