:03000000020016E5
:0C001600787FE4F6D8FD75810902005DDA
:0601620001080001090084
:08015A0012014F12014380FE67
:030003000200F701
:1000F700C0E0C0F0C0D075D000C000C004C005C0CB
:1001070006C007E509B40111E5082401FFE433FE41
:100117007C007D031200A28D08D007D006D005D041
:0A01270004D000D0D0D0F0D0E032B8
:03001300020131B6
:10013100C0E0C0D0C374019509F509C2A0D0D0D0E8
:02014100E032AA
:03000B00020006EA
:0100060032C7
:0B014F00D288D28AD2A8D2AAD2AF2256
:0C014300758901758C9C758A9CD2A922DC
:1000220002015AE493A3F8E493A34003F68001F299
:1000320008DFF48029E493A3F85407240CC8C333DF
:10004200C4540F4420C8834004F456800146F6DFAE
:10005200E4800B0102040810204080900162E47EDB
:10006200019360BCA3FF543F30E509541FFEE493A3
:10007200A360010ECF54C025E060A840B8E493A36A
:10008200FAE493A3F8E493A3C8C582C8CAC583CA95
:10009200F0A3C8C582C8CAC583CADFE9DEE780BE4D
:010168000096
:1000A200BC000BBE0029EF8DF084FFADF022E4CC42
:1000B200F875F008EF2FFFEE33FEEC33FCEE9DEC0B
:1000C200984005FCEE9DFE0FD5F0E9E4CEFD22ED51
:1000D200F8F5F0EE8420D21CFEADF075F008EF2F9B
:1000E200FFED33FD4007985006D5F0F222C398FD8C
:0500F2000FD5F0EA2229
:00000001FF
